:101D4100E4FDFCC3ED9FEC9E5015E4FBFA0BBB00D8
:0F1D5100010AEB64784A70F50DBD00010C80E4C7
:011D60002260
:101DB400759850438E4053890F758DFD858D8BD258
:021DC4008E226D
:081DE9008F993099FDC2992287
:081DF1003098FDC298AF992261
:041D0E007FD07E07FD
:101D1200E4FDFCC3ED9FEC9E5022309805C298AFC3
:021D2200992204
:101D2400E4F52BF52C052CE52C7002052B64784585
:031D34002B70F21F
:091D37000DBD00010C80D77F00F6
:011D40002280
:081DF900E4F5C7F5C5F5C622AB
:041D6100AD07AC0618
:101D650075C78075C5018CC3EDF5C475C65A75C6B2
:081D7500A50000AFC2121DF928
:011D7D002243
:101D7E00AB07AA0675C78075C5028AC3EBF5C48D7D
:0C1D8E00C275C65A75C6A50000021DF9FA
:101D9A00AD07AC0675C78075C5038CC3EDF5C47570
:0A1DAA00C65A75C6A50000021DF917
:0E1DC600AB077F007E1F121D9AAD03021D7E2B
:091DE000121DF9C2AF75C72022E3
:101C000075817F121DB47F647E00121D417F007EAE
:101C10001F121D61EF64A5600DE4FFFE121D61EF50
:101C2000F46003021D007F307E75121D12EF7003F9
:101C3000121DE0EF14603214605224FE7003021C87
:101C4000E8146003021D067F06121DE97F53121D72
:101C5000E90F121DE97F43121DE97F38121DE97F4C
:101C600047121DE97F08021CE2121D0EEF750900E4
:101C7000F5087FD0121D12EF4209C3E508941C50ED
:101C800007AF09AE08121D9A7F068056121D0EEF8F
:101C9000750900F5087FD0121D12EF42097FD0129E
:101CA0001D128F0AE50AD394204003750A20E4F937
:101CB000E9C3950A500C121D0E740B29F8A60709EA
:101CC00080EEE4F9E9C3950A5016E97E002509FF84
:101CD000EE3508FE740B29F8E6FD121D7E0980E43E
:101CE0007F06121DE9021C267F06121DE97F147E65
:101CF00000121D41E4FF121DC67F147E00121D411B
:0E1D0000121DE0021C267F15121DE9021C2692
:03000000021DD40A
:0C1DD400787FE4F6D8FD75812C021C001D
:00000001FF
