:101EC000121C00FED3940340037FFF22EF640370D3
:101ED00041EE700B900001121C19F452B152B21273
:101EE0001C00B4010B900001121C1942B1F452B253
:101EF000121C00FFB4020A900001121C1942B142E8
:101F0000B2EFB4030D900001121C19FFF452B1EFAF
:051F100042B27F002237
:101F8000EF7004C2AC8002D2ACED700553B7EFC263
:101F9000BCBD010553B7EFD2BCBD020543B710C2AB
:0C1FA000BCBD030543B710D2BC7F00227B
:101FAC00E4FDFCC3ED9FEC9E5015E4FBFA0BBB006B
:0F1FBC00010AEB64784A70F50DBD00010C80E45A
:011FCB0022F3
:101F5300750840750901750D00750CC2750B017587
:101F63000A00750F01E4F510FB7A0079087F01126E
:0C1F73001D9E7D017F01121F8053A23FC4
:011F7F00223F
:081FD8008F993099FDC2992296
:101F1500E4F51DF51E7F64FE121FAC7F3112000033
:101F25007F311200007F321200007F647E00121F95
:101F3500AC051EE51E7002051DC39405E51D940044
:0E1F450040E8E4F51DF51E7F3312000080DC3D
:061D9E008B118A1289136B
:101DA400EF64016003021EBDF518F519F51AF51B61
:101DB400F51CFF7E40900040E4F0A3DEFCE4FF7ECF
:101DC40040900000E4F0A3DEFC7E00AB11AA12A94F
:101DD40013121C00FFE598543F4FF598EF64C06060
:101DE40008EF64406003021E72900002121D387FE7
:101DF400007E307D2A7C00121C828F178E168D1572
:101E04008C14E4FFFE7D01FCAB17AA16A915A814D7
:101E1400C3121D1440037FFF22C3E49517F517E492
:101E24009516F51674019515F515E49514F514AB8E
:101E340011AA12A913900001121C196401702CC27A
:101E44008E538EFE5389BF5389CF438E40AF17AE56
:101E540016AD15AC147808121D258F8D85178BC20D
:101E6400AB5389BF538FFDD28E80377FFF22AB11D6
:101E7400AA12A913121C00FF7013900008121C1957
:101E8400B40105438E20801A538EDF8015EFB48091
:101E940011900008121C19B4010543878080035374
:101EA400877FAB11AA12A913900007121C197004A2
:0B1EB400C29C8002D29C7F00227FFFB6
:011EBF002200
:03000000021FCC10
:0C1FCC00787FE4F6D8FD75811E021F1519
:101C0000BB010689828A83E0225002E722BBFE02E2
:091C1000E32289828A83E4932215
:101C1900BB010CE58229F582E5833AF583E0225080
:101C290006E92582F8E622BBFE06E92582F8E222CA
:0D1C3900E58229F582E5833AF583E49322E4
:101C460075F008758200EF2FFFEE33FECD33CDCC55
:101C560033CCC58233C5829BED9AEC99E5829840D8
:101C66000CF582EE9BFEED9AFDEC99FC0FD5F0D6B5
:101C7600E4CEFBE4CDFAE4CCF9A88222B800C1B9DF
:101C86000059BA002DEC8BF084CFCECDFCE5F0CB1D
:101C9600F97818EF2FFFEE33FEED33FDEC33FCEB56
:101CA60033FB10D703994004EB99FB0FD8E5E4F911
:101CB600FA227818EF2FFFEE33FEED33FDEC33FCFE
:101CC600C933C910D7059BE99A4007EC9BFCE99AF2
:101CD600F90FD8E0E4C9FAE4CCFB2275F010EF2F37
:101CE600FFEE33FEED33FDCC33CCC833C810D70737
:101CF6009BEC9AE899400AED9BFDEC9AFCE899F872
:0E1D06000FD5F0DAE4CDFBE4CCFAE4C8F92204
:101D1400EB9FF5F0EA9E42F0E99D42F0E89C45F025
:011D2400229C
:101D2500E8600FECC313FCED13FDEE13FEEF13FF9C
:031D3500D8F122C0
:101D3800BB010DE58229F582E5833AF583021D751D
:101D48005007E92582F8021D68BBFE07E92582F8DD
:101D5800021D81E58229F582E5833AF583021D8E0D
:0D1D6800E6FB08E6F908E6FA08E6CBF822EB
:0C1D7500E0F8A3E0F9A3E0FAA3E0FB22F1
:0D1D8100E2FB08E2F908E2FA08E2CBF822E2
:101D8E00E493F8740193F9740293FA740393FB22AB
:00000001FF
