:101D4100E4FDFCC3ED9FEC9E5015E4FBFA0BBB00D8
:0F1D5100010AEB64784A70F50DBD00010C80E4C7
:011D60002260
:101DB300759850438E4053890F758DFD858D8BD259
:021DC3008E226E
:081DE8008F993099FDC2992288
:081DF0003098FDC298AF992262
:041D0E007FD07E07FD
:101D1200E4FDFCC3ED9FEC9E5022309805C298AFC3
:021D2200992204
:101D2400E4F52BF52C052CE52C7002052B64784585
:031D34002B70F21F
:091D37000DBD00010C80D77F00F6
:011D40002280
:081DF800E4F5C7F5C5F5C622AC
:041D6100AD07AC0618
:101D650075C78075C5018CC3EDF5C475C65A75C6B2
:081D7500A50000AFC2021DF839
:101D7D00AB07AA0675C78075C5028AC3EBF5C48D7E
:0C1D8D00C275C65A75C6A50000021DF8FC
:101D9900AD07AC0675C78075C5038CC3EDF5C47571
:0A1DA900C65A75C6A50000021DF819
:0E1DC500AB077F007E1F121D99AD03021D7D2E
:091DDF00121DF8C2AF75C72022E5
:101C000075817F121DB37F647E00121D417F007EAF
:101C10001F121D61EF64A5600DE4FFFE121D61EF50
:101C2000F46003021D007F307E75121D12EF7003F9
:101C3000121DDFEF14603214605224FE7003021C88
:101C4000E8146003021D067F06121DE87F53121D73
:101C5000E80F121DE87F43121DE87F38121DE87F50
:101C600047121DE87F08021CE2121D0EEF750900E5
:101C7000F5087FD0121D12EF4209C3E508941C50ED
:101C800007AF09AE08121D997F068056121D0EEF90
:101C9000750900F5087FD0121D12EF42097FD0129E
:101CA0001D128F0AE50AD394204003750A20E4F937
:101CB000E9C3950A500C121D0E740B29F8A60709EA
:101CC00080EEE4F9E9C3950A5016E97E002509FF84
:101CD000EE3508FE740B29F8E6FD121D7D0980E43F
:101CE0007F06121DE8021C267F06121DE87F147E67
:101CF00000121D41E4FF121DC57F147E00121D411C
:0E1D0000121DDF021C267F15121DE8021C2694
:03000000021DD30B
:0C1DD300787FE4F6D8FD75812C021C001E
:00000001FF
