:101D0D00E4FDFCC3ED9FEC9E5015E4FBFA0BBB000C
:0F1D1D00010AEB64784A70F50DBD00010C80E4FB
:011D2C002294
:101D7F00759850438E4053890F758DFF758BE8D240
:021D8F008E22A2
:081DB4008F993099FDC29922BC
:081DBC003098FDC298AF992296
:041CDA007FD07E0732
:101CDE00E4FDFCC3ED9FEC9E5022309805C298AFF8
:021CEE00992239
:101CF000E4F52BF52C052CE52C7002052B647845BA
:031D00002B70F253
:091D03000DBD00010C80D77F002A
:011D0C0022B4
:081DC400E4F5C7F5C5F5C622E0
:041D2D00AD07AC064C
:101D310075C78075C5018CC3EDF5C475C65A75C6E6
:081D4100A50000AFC2021DC4A1
:101D4900AB07AA0675C78075C5028AC3EBF5C48DB2
:0C1D5900C275C65A75C6A50000021DC464
:101D6500AD07AC0675C78075C5038CC3EDF5C475A5
:0A1D7500C65A75C6A50000021DC481
:0E1D9100AB077F007E0E121D65AD03021D49DB
:091DAB00121DC4C2AF75C720224D
:101C000075817FE4F5A8121D7F7F64FE121D0D7F94
:101C100042121DB47F4F121DB4121DB47F54121D09
:101C2000B47F0D121DB47F0A021CAE7F307E751288
:101C30001CDEEF14602E14604024FE6077146003F5
:101C4000021CD27F06121DB47F53121DB40F121D49
:101C5000B47F43121DB47F38121DB47F47121DB4E8
:101C60007F08804A121CDAEF750A00F5097FD0124E
:101C70001CDEEF420A7F068035121CDAEF750A007F
:101C8000F5097FD0121CDEEF420A7FD0121CDEABBA
:101C900007EBD3942040027B20E4FAEAC39B500C6C
:101CA000121CDA740B2AF8A6070A80EF7F06121DB1
:101CB000B4021C2B7F06121DB47F147E00121D0D72
:101CC000E4FF121D917F147E00121D0D121DAB0248
:0A1CD0001C2B7F15121DB4021C2B03
:03000000021D9F3F
:0C1D9F00787FE4F6D8FD75812C021C0052
:00000001FF
