:101C0000E4F5A853B1FC53B2FCE598543F4440F5C9
:101C100098D29CC28E538EFE5389BF5389CF438E78
:101C200040758DFF758BE8C2AB5389BF538FFDD2D2
:0B1C30008ED2AC53B7EFD2BC53A23FE2
:101C3B00E4F508F509AE08AF09E4FCFD7B507AC367
:101C4B00F9F8D3121C91400A0509E50970E705085C
:021C5B0080E324
:081C5D007599423099FDC2990E
:101C6500E4F508F509AE08AF09E4FCFD7B507AC33D
:101C7500F9F8D3121C91400A0509E50970E7050832
:021C850080E3FA
:0A1C870075992E3099FDC29980D4A2
:03000000021CA738
:0C1CA700787FE4F6D8FD758109021C006E
:101C9100EB9FF5F0EA9E42F0E99D42F0EC6480C8CA
:061CA10064809845F0226A
:00000001FF
