:101D5900E4FDFCC3ED9FEC9E5015E4FBFA0BBB00C0
:0F1D6900010AEB64784A70F50DBD00010C80E4AF
:011D78002248
:101DCC00759850438E4053890F758DFF758BE8D2F3
:021DDC008E2255
:081E01008F993099FDC299226E
:081E09003098FDC298AF992248
:041D26007FD07E07E5
:101D2A00E4FDFCC3ED9FEC9E5022309805C298AFAB
:021D3A009922EC
:101D3C00E4F52BF52C052CE52C7002052B6478456D
:031D4C002B70F207
:091D4F000DBD00010C80D77F00DE
:011D58002268
:081E1100E4F5C7F5C5F5C62292
:041D7900AD07AC0600
:101D7D0075C78075C5018CC3EDF5C475C65A75C69A
:081D8D00A50000AFC2121E11F7
:011D9500222B
:101D9600AB07AA0675C78075C5028AC3EBF5C48D65
:0C1DA600C275C65A75C6A50000021E11C9
:101DB200AD07AC0675C78075C5038CC3EDF5C47558
:0A1DC200C65A75C6A50000021E11E6
:0E1DDE00AB077F007E1F121DB2AD03021D96E3
:091DF800121E11C2AF75C72022B2
:101C000075817FE4F5A8121DCC7F64FE121D597FFB
:101C1000007E1F121D79EF64A5600DE4FFFE121D0A
:101C200079EFF46003121DF87F42121E017F4F12FC
:101C30001E01121E017F54121E017F0D121E017F14
:101C40000A021CFA7F307E75121D2AEF14603214CE
:101C5000605224FE7003021D00146003021D1E7FEB
:101C600006121E017F53121E010F121E017F431226
:101C70001E017F38121E017F47121E017F08021CC1
:101C8000FA121D26EF750900F5087FD0121D2AEF04
:101C90004209C3E508941C5007AF09AE08121DB2F3
:101CA0007F068056121D26EF750900F5087FD012B9
:101CB0001D2AEF42097FD0121D2A8F0AE50AD3940C
:101CC000204003750A20E4F9E9C3950A500C121D5F
:101CD00026740B29F8A6070980EEE4F9E9C3950AF2
:101CE0005016E97E002509FFEE3508FE740B29F831
:101CF000E6FD121D960980E47F06121E01021C44B7
:101D00007F06121E017F147E00121D59E4FF121D72
:101D1000DE7F147E00121D59121DF8021C447F152F
:061D2000121E01021C442A
:03000000021DECF2
:0C1DEC00787FE4F6D8FD75812C021C0005
:00000001FF
